{
  "_format": "hh-sol-artifact-1",
  "contractName": "FavoriteNumber",
  "sourceName": "contracts/FavoriteNumber.sol",
  "abi": [
    {
      "anonymous": false,
      "inputs": [
        {
          "indexed": true,
          "internalType": "address",
          "name": "from",
          "type": "address"
        },
        {
          "indexed": false,
          "internalType": "uint256",
          "name": "timestamp",
          "type": "uint256"
        },
        {
          "indexed": false,
          "internalType": "string",
          "name": "name",
          "type": "string"
        },
        {
          "indexed": false,
          "internalType": "uint256",
          "name": "favoriteNumber",
          "type": "uint256"
        }
      ],
      "name": "NewFavoriteNumber",
      "type": "event"
    },
    {
      "inputs": [
        {
          "internalType": "uint256",
          "name": "_favoriteNumber",
          "type": "uint256"
        },
        {
          "internalType": "string",
          "name": "_name",
          "type": "string"
        }
      ],
      "name": "addPerson",
      "outputs": [],
      "stateMutability": "nonpayable",
      "type": "function"
    },
    {
      "inputs": [],
      "name": "getAllPeople",
      "outputs": [
        {
          "components": [
            {
              "internalType": "address",
              "name": "numberKeeper",
              "type": "address"
            },
            {
              "internalType": "uint256",
              "name": "timestamp",
              "type": "uint256"
            },
            {
              "internalType": "string",
              "name": "name",
              "type": "string"
            },
            {
              "internalType": "uint256",
              "name": "favoriteNumber",
              "type": "uint256"
            }
          ],
          "internalType": "struct FavoriteNumber.People[]",
          "name": "",
          "type": "tuple[]"
        }
      ],
      "stateMutability": "view",
      "type": "function"
    },
    {
      "inputs": [
        {
          "internalType": "string",
          "name": "name",
          "type": "string"
        }
      ],
      "name": "getNameToFavoriteNumber",
      "outputs": [
        {
          "internalType": "uint256",
          "name": "",
          "type": "uint256"
        }
      ],
      "stateMutability": "view",
      "type": "function"
    },
    {
      "inputs": [
        {
          "internalType": "uint256",
          "name": "",
          "type": "uint256"
        }
      ],
      "name": "people",
      "outputs": [
        {
          "internalType": "address",
          "name": "numberKeeper",
          "type": "address"
        },
        {
          "internalType": "uint256",
          "name": "timestamp",
          "type": "uint256"
        },
        {
          "internalType": "string",
          "name": "name",
          "type": "string"
        },
        {
          "internalType": "uint256",
          "name": "favoriteNumber",
          "type": "uint256"
        }
      ],
      "stateMutability": "view",
      "type": "function"
    },
    {
      "inputs": [],
      "name": "retrieve",
      "outputs": [
        {
          "internalType": "uint256",
          "name": "",
          "type": "uint256"
        }
      ],
      "stateMutability": "view",
      "type": "function"
    },
    {
      "inputs": [
        {
          "internalType": "uint256",
          "name": "_favoriteNumber",
          "type": "uint256"
        }
      ],
      "name": "storeNumber",
      "outputs": [],
      "stateMutability": "nonpayable",
      "type": "function"
    }
  ],
  "bytecode": "0x608060405234801561001057600080fd5b50610c87806100206000396000f3fe608060405234801561001057600080fd5b50600436106100625760003560e01c80632e64cec114610067578063534e934b1461008557806385a26d7d146100b55780639e7a13ad146100d3578063b633941814610106578063bc832d4e14610122575b600080fd5b61006f61013e565b60405161007c91906109b6565b60405180910390f35b61009f600480360381019061009a9190610694565b610148565b6040516100ac91906109b6565b60405180910390f35b6100bd610170565b6040516100ca9190610994565b60405180910390f35b6100ed60048036038101906100e891906106dd565b6102cb565b6040516100fd9493929190610948565b60405180910390f35b610120600480360381019061011b91906106dd565b6103b3565b005b61013c6004803603810190610137919061070a565b6103bd565b005b6000600254905090565b600060018260405161015a9190610931565b9081526020016040518091039020549050919050565b60606000805480602002602001604051908101604052809291908181526020016000905b828210156102c257838290600052602060002090600402016040518060800160405290816000820160009054906101000a900473ffffffffffffffffffffffffffffffffffffffff1673ffffffffffffffffffffffffffffffffffffffff1673ffffffffffffffffffffffffffffffffffffffff1681526020016001820154815260200160028201805461022790610b54565b80601f016020809104026020016040519081016040528092919081815260200182805461025390610b54565b80156102a05780601f10610275576101008083540402835291602001916102a0565b820191906000526020600020905b81548152906001019060200180831161028357829003601f168201915b5050505050815260200160038201548152505081526020019060010190610194565b50505050905090565b600081815481106102db57600080fd5b90600052602060002090600402016000915090508060000160009054906101000a900473ffffffffffffffffffffffffffffffffffffffff169080600101549080600201805461032a90610b54565b80601f016020809104026020016040519081016040528092919081815260200182805461035690610b54565b80156103a35780601f10610378576101008083540402835291602001916103a3565b820191906000526020600020905b81548152906001019060200180831161038657829003601f168201915b5050505050908060030154905084565b8060028190555050565b6103c561052e565b81816040018190525082816060018181525050600060405180608001604052803373ffffffffffffffffffffffffffffffffffffffff16815260200142815260200184815260200185815250908060018154018082558091505060019003906000526020600020906004020160009091909190915060008201518160000160006101000a81548173ffffffffffffffffffffffffffffffffffffffff021916908373ffffffffffffffffffffffffffffffffffffffff1602179055506020820151816001015560408201518160020190805190602001906104a792919061056c565b50606082015181600301555050826001836040516104c59190610931565b9081526020016040518091039020819055503373ffffffffffffffffffffffffffffffffffffffff167f558294ccf5565e12bf08878d430de2a7f5d230bb09d5d680f28e1805b69821e0428486604051610521939291906109d1565b60405180910390a2505050565b6040518060800160405280600073ffffffffffffffffffffffffffffffffffffffff1681526020016000815260200160608152602001600081525090565b82805461057890610b54565b90600052602060002090601f01602090048101928261059a57600085556105e1565b82601f106105b357805160ff19168380011785556105e1565b828001600101855582156105e1579182015b828111156105e05782518255916020019190600101906105c5565b5b5090506105ee91906105f2565b5090565b5b8082111561060b5760008160009055506001016105f3565b5090565b600061062261061d84610a34565b610a0f565b90508281526020810184848401111561063e5761063d610c1a565b5b610649848285610b12565b509392505050565b600082601f83011261066657610665610c15565b5b813561067684826020860161060f565b91505092915050565b60008135905061068e81610c3a565b92915050565b6000602082840312156106aa576106a9610c24565b5b600082013567ffffffffffffffff8111156106c8576106c7610c1f565b5b6106d484828501610651565b91505092915050565b6000602082840312156106f3576106f2610c24565b5b60006107018482850161067f565b91505092915050565b6000806040838503121561072157610720610c24565b5b600061072f8582860161067f565b925050602083013567ffffffffffffffff8111156107505761074f610c1f565b5b61075c85828601610651565b9150509250929050565b600061077283836108b0565b905092915050565b61078381610ad6565b82525050565b61079281610ad6565b82525050565b60006107a382610a75565b6107ad8185610a98565b9350836020820285016107bf85610a65565b8060005b858110156107fb57848403895281516107dc8582610766565b94506107e783610a8b565b925060208a019950506001810190506107c3565b50829750879550505050505092915050565b600061081882610a80565b6108228185610aa9565b9350610832818560208601610b21565b61083b81610c29565b840191505092915050565b600061085182610a80565b61085b8185610aba565b935061086b818560208601610b21565b61087481610c29565b840191505092915050565b600061088a82610a80565b6108948185610acb565b93506108a4818560208601610b21565b80840191505092915050565b60006080830160008301516108c8600086018261077a565b5060208301516108db6020860182610913565b50604083015184820360408601526108f3828261080d565b91505060608301516109086060860182610913565b508091505092915050565b61091c81610b08565b82525050565b61092b81610b08565b82525050565b600061093d828461087f565b915081905092915050565b600060808201905061095d6000830187610789565b61096a6020830186610922565b818103604083015261097c8185610846565b905061098b6060830184610922565b95945050505050565b600060208201905081810360008301526109ae8184610798565b905092915050565b60006020820190506109cb6000830184610922565b92915050565b60006060820190506109e66000830186610922565b81810360208301526109f88185610846565b9050610a076040830184610922565b949350505050565b6000610a19610a2a565b9050610a258282610b86565b919050565b6000604051905090565b600067ffffffffffffffff821115610a4f57610a4e610be6565b5b610a5882610c29565b9050602081019050919050565b6000819050602082019050919050565b600081519050919050565b600081519050919050565b6000602082019050919050565b600082825260208201905092915050565b600082825260208201905092915050565b600082825260208201905092915050565b600081905092915050565b6000610ae182610ae8565b9050919050565b600073ffffffffffffffffffffffffffffffffffffffff82169050919050565b6000819050919050565b82818337600083830152505050565b60005b83811015610b3f578082015181840152602081019050610b24565b83811115610b4e576000848401525b50505050565b60006002820490506001821680610b6c57607f821691505b60208210811415610b8057610b7f610bb7565b5b50919050565b610b8f82610c29565b810181811067ffffffffffffffff82111715610bae57610bad610be6565b5b80604052505050565b7f4e487b7100000000000000000000000000000000000000000000000000000000600052602260045260246000fd5b7f4e487b7100000000000000000000000000000000000000000000000000000000600052604160045260246000fd5b600080fd5b600080fd5b600080fd5b600080fd5b6000601f19601f8301169050919050565b610c4381610b08565b8114610c4e57600080fd5b5056fea2646970667358221220464ed1198e13f3191b43cc5e529c518c9cfdf1b73520951241bd8f09b09cafcb64736f6c63430008070033",
  "linkReferences": {},
  "deployedLinkReferences": {}
}